:100000000C9458000C9480000C9480000C94800098
:100010000C9480000C9480000C9480000C94800060
:100020000C9480000C9480000C9480000C94800050
:100030000C9480000C9480000C9480000C94800040
:100040000C94E5090C9480000C94550A0C942F0A2A
:100050000C9480000C9480000C9480000C94800020
:100060000C94870A0C9480000000000025002800F2
:100070002B00040404040404040402020202020229
:10008000030303030303010204081020408001025C
:1000900004081020010204081020000000080002DB
:1000A0000100000304070000000000000000A60B90
:1000B00011241FBECFEFD8E0DEBFCDBF11E0A0E01E
:1000C000B1E0E8E9FBE102C005900D92AE38B1075E
:1000D000D9F723E0AEE8B1E001C01D92AC32B2071F
:1000E000E1F710E0C8E5D0E004C02197FE010E94CE
:1000F000BF0DC735D107C9F70E94190C0C94CA0D62
:100100000C94000091E09093300280935202109280
:10011000310210925302089590E0FC01E656FF4F21
:100120002491FC01EA57FF4F3491FC01EE58FF4F38
:10013000E491EE23C9F0222339F0233001F1A8F431
:10014000213019F1223029F1F0E0EE0FFF1FE859BC
:10015000FF4FA591B4918FB7F894EC91611126C02F
:1001600030953E233C938FBF08952730A9F0283067
:10017000C9F0243049F7809180008F7D03C08091C1
:1001800080008F7780938000DFCF84B58F7784BD28
:10019000DBCF84B58F7DFBCF8091B0008F778093CC
:1001A000B000D2CF8091B0008F7DF9CF3E2BDACF57
:1001B0003FB7F8948091DE019091DF01A091E001BA
:1001C000B091E10126B5A89B05C02F3F19F001961B
:1001D000A11DB11D3FBFBA2FA92F982F8827BC01A1
:1001E000CD01620F711D811D911D42E0660F771FC9
:1001F000881F991F4A95D1F708958F929F92AF92C9
:10020000BF92CF92DF92EF92FF924B015C010E946E
:10021000D8006B017C010E94D8006C197D098E0901
:100220009F09683E734081059105A8F321E0821A79
:100230009108A108B10888EEC80E83E0D81EE11C21
:10024000F11C81149104A104B10429F7FF90EF90EF
:10025000DF90CF90BF90AF909F908F900895AF9216
:10026000BF92CF92DF92EF92FF920F931F93CF93A3
:10027000DF936C017B018B01040F151FEB015E0105
:10028000AE18BF08C017D10759F06991D601ED919A
:10029000FC910190F081E02DC6010995892B79F739
:1002A000C501DF91CF911F910F91FF90EF90DF90EB
:1002B000CF90BF90AF900895FC01538D448D252FB2
:1002C00030E0842F90E0821B930B541710F0CF96F0
:1002D000089501970895FC01918D828D981761F022
:1002E000A28DAE0FBF2FB11D5D968C91928D9F5F39
:1002F0009F73928F90E008958FEF9FEF0895FC0118
:10030000918D828D981731F0828DE80FF11D858DCA
:1003100090E008958FEF9FEF0895FC01918D228D5D
:10032000892F90E0805C9F4F821B91098F739927E2
:10033000089584E592E00E948D0121E0892B09F463
:1003400020E0822F089580E090E0892B29F00E9420
:10035000990181110C9400000895FC01A48DA80F4F
:10036000B92FB11DA35ABF4F2C91848D90E00196F7
:100370008F739927848FA689B7892C93A089B18917
:100380008C91837080648C93938D848D981306C0B8
:100390000288F389E02D80818F7D80830895EF921C
:1003A000FF920F931F93CF93DF93EC0181E0888F2F
:1003B0009B8D8C8D98131AC0E889F989808185FFFF
:1003C00015C09FB7F894EE89FF896083E889F989A1
:1003D00080818370806480839FBF81E090E0DF91A3
:1003E000CF911F910F91FF90EF900895F62E0B8DF6
:1003F00010E00F5F1F4F0F731127E02E8C8D8E11B1
:100400000CC00FB607FCFACFE889F989808185FF17
:10041000F5CFCE010E94AD01F1CFEB8DEC0FFD2F9A
:10042000F11DE35AFF4FF0829FB7F8940B8FEA89D2
:10043000FB8980818062CFCFCF93DF93EC01888DE1
:100440008823B9F0AA89BB89E889F9898C9185FD4F
:1004500003C0808186FD0DC00FB607FCF7CF8C91DD
:1004600085FFF2CF808185FFEDCFCE010E94AD01E7
:10047000E9CFDF91CF9108952091B201260F332764
:10048000331F21323105ECF420912A02FC0190E067
:1004900080E0243069F082E00895A091B2012191BA
:1004A000AC0140575E4FA40FB52FB11D2C930196A0
:1004B000861798F38091B201680F6093B20180E0D3
:1004C000089581E0089510922A0281E08093290224
:1004D0001092040261E082E10E948C0061E083E1FD
:1004E0000E948C00E9EBF0E080818E7F8083808128
:1004F0008D7F808388E48093B80085E48093BC007E
:100500000895CF93DF9391E090938F018823B9F002
:10051000C091B800D091BA008091BC008A7B8093D2
:10052000BC0060E082E10E948C0060E083E10E94F8
:100530008C000E946302D093BA00C093B800DF9190
:10054000CF910895CF92DF92EF92FF920F931F9376
:10055000CF93DF93D091530281E0D13208F09CC059
:10056000C09152020E94D8006B017C0180912A0246
:1005700081116CC082E080932A0281E0809329027D
:100580008FEF8093280210922702D0932602A2E3D5
:10059000B2E0E6E0F2E080E0D8138DC010920502F0
:1005A00080910502CC0FC82BC093050280910402F4
:1005B000813009F084C0109204020E94D8006B01BF
:1005C0007C01809105028093BB0080912C02909168
:1005D0002D02A0912E02B0912F02892B8A2B8B2BFA
:1005E000A1F00E94D80000912C0210912D022091C0
:1005F0002E0230912F026C197D098E099F09061772
:1006000017072807390708F442C08091BC0083FD12
:10061000D8CF85EC8093BC000E94D8006B017C0190
:1006200080912A02823009F44CC0809128028F3FC9
:1006300009F469C080912802803209F466C0809173
:100640002802803309F463C084E026C080912C0224
:1006500090912D02A0912E02B0912F02892B8A2B0E
:100660008B2B09F483CF0E94D80000912C021091AB
:100670002D0220912E0230912F026C197D098E09D6
:100680009F09061717072807390708F06FCF8091D1
:100690002B020E94810285E01092310210925302D7
:1006A00010923002DF91CF911F910F91FF90EF9048
:1006B000DF90CF9008959D9191938F5F6DCF85EEE0
:1006C000A9CF80912C0290912D02A0912E02B09181
:1006D0002F02892B8A2B8B2B09F4A2CF0E94D800E2
:1006E00000912C0210912D0220912E0230912F02A8
:1006F0006C197D098E099F09061717072807390706
:1007000008F08ECFC4CF80E0C7CF82E0C5CF83E0B2
:10071000C3CF089508950895E091E3018091E20127
:10072000E81730F4F0E0EC51FE4F808190E008953E
:100730008FEF9FEF08959091E3018091E2012FEFF9
:100740003FEF981748F4E92FF0E0EC51FE4F20817D
:1007500030E09F5F9093E301C90108958091E20129
:100760009091E301891B990B0895CF92DF92EF924C
:10077000FF920F931F93CF93DF937C01CB018A01EC
:1007800020913002222389F0EB016B01C40ED51EAB
:10079000CC15DD0569F06991D701ED91FC910190CF
:1007A000F081E02DC7010995F3CF642F0E943C0230
:1007B000C801DF91CF911F910F91FF90EF90DF90D3
:1007C000CF900895CF93DF931F92CDB7DEB76983A3
:1007D000209130022223F9F020915302203258F068
:1007E00021E030E0FC013383228390E080E00F9031
:1007F000DF91CF91089580913102E82FF0E0EE5C17
:10080000FD4F998190838F5F8093310280935302D3
:1008100081E090E0ECCF61E0CE0101960E943C02C5
:10082000F7CF682F81EF92E00C94E2038F929F92B2
:10083000AF92BF92EF92FF921F93CF93DF93EC01A1
:10084000162FE881F9810484F585E02D462F70E0AC
:1008500060E009957C0111501230D8F419861A868F
:1008600088889988AA88BB880E94D800688F798F69
:100870008A8F9B8F8C8E9D8EAE8EBF8EC701DF912F
:10088000CF911F91FF90EF90BF90AF909F908F906E
:1008900008958C889D88AE88BF88E6CFDC011896C5
:1008A0008C911897481710F04FEF480F1B969C91AA
:1008B0001B97992389F017969C911797691730F029
:1008C000691B4F5F4817D0F340E0F8CF19966C933F
:1008D00019971A964C931A97FD01E40FF11D848520
:1008E000680F6068CD010C9416048F929F92AF92AE
:1008F000BF92EF92FF920F931F93CF93DF93EC0180
:10090000462FE881F9810484F585E02D61E070E0EF
:1009100009957C018C889D88AE88BF880E94D8008C
:10092000688F798F8A8F9B8F8C8E9D8EAE8EBF8EB7
:1009300001E010E0EF2811F010E000E08B85882343
:1009400099F089858F5F89879F81891768F019865B
:100950008A858F5F8A879885891708F01A864A8565
:1009600060E0CE010E944E04C801DF91CF911F913B
:100970000F91FF90EF90BF90AF909F908F90089550
:100980008DEF9FEF08958DEF9FEF089590E080E049
:1009900008950F931F93CF93DF93182FD0E0C0E2F9
:1009A0008C2F0E9482000E94A202082F61E070E05A
:1009B00080E090E00E94FD00011103C01D17D1F0FE
:1009C000DF5FCF5FC83261F7C8E38C2F0E948200DF
:1009D0000E94A202082F61E070E080E090E00E9497
:1009E000FD00011103C01D1729F0DF5FCF5FC03488
:1009F00061F7C0E08C2FDF91CF911F910F91089587
:100A0000CF93FC01C4A560FF02C086A1C82B61FF83
:100A100002C087A1C82B62FF02C080A5C82B63FF5C
:100A200002C081A5C82B4130510511F483A1C82B08
:100A300085A18C2B90E00E9411046C2F81EF92E035
:100A4000CF910C94E203CF93DF93EC018AA5882326
:100A500049F19BA5662311F1913011F58CA788A16E
:100A60000E94820089A19AA1029721F489E090E076
:100A70000E9411046CA581EF92E00E94E2030E94A3
:100A8000A20221E030E0811102C030E020E088279E
:100A90009927821B930BDF91CF9108959923F1F24F
:100AA0001CA6DDCF8DEF9FEFF6CF4F925F926F9236
:100AB0007F928F929F92AF92BF92EF92FF921F937D
:100AC000CF93DF93EC0188A1882309F459C089A151
:100AD0009AA1892B09F454C0142F7B014C8C5D8C96
:100AE0006E8C7F8C888C998CAA8CBB8C8DE2881A3A
:100AF0009108A108B1080E94D800681979098A09EB
:100B00009B096415750586059705A8F388A10E94C1
:100B1000820089A19AA1029721F489E090E00E94C5
:100B20001104612F70E084E0759567958A95E1F76F
:100B3000A701CE010E94000582E0E816F10431F021
:100B4000612F6F70A701CE010E9400050E94A202D2
:100B500021E030E0811102C030E020E088279927B1
:100B6000821B930BDF91CF911F91FF90EF90BF906D
:100B7000AF909F908F907F906F905F904F9008956F
:100B80008CEF9FEFEFCFCF92DF92EF92FF920F9318
:100B90001F93CF93DF93482F62E070E08FEF92E0D6
:100BA0000E9455058C01CFEFD2E0CC88DD88EE881D
:100BB000FF880E94D800688F798F8A8F9B8FCC8E98
:100BC000DD8EEE8EFF8EC801DF91CF911F910F91C8
:100BD000FF90EF90DF90CF9008950895FC01019071
:100BE0000020E9F73197AF01481B590BBC0184E5A0
:100BF00092E00C942F01CF93DF930E94EE05EC015D
:100C000080E591E00E94EE058C0F9D1FDF91CF9152
:100C10000895CF92DF92EF92FF920F931F93CF939D
:100C2000C82F0E94D8006B017C0180912A0281119B
:100C300064C081E080932A02809329029FEF909301
:100C400028021092270210922602809305028091BA
:100C50000502CC0FC82BC09305028091040281309D
:100C600009F07DC0109204020E94D8006B017C0143
:100C7000809105028093BB0080912C0290912D02FF
:100C8000A0912E02B0912F02892B8A2B8B2BA1F0E1
:100C90000E94D80000912C0210912D0220912E026A
:100CA00030912F026C197D098E099F0906171707CD
:100CB0002807390708F442C08091BC0083FDD8CFD3
:100CC00085EC8093BC000E94D8006B017C01809170
:100CD0002A02813009F445C080912702811163C046
:100CE00080912702E6E0F2E0A4EEB1E090E09817F0
:100CF00051F121912D939F5FFACF80912C02909119
:100D00002D02A0912E02B0912F02892B8A2B8B2BC2
:100D100009F48BCF0E94D80000912C0210912D0273
:100D200020912E0230912F026C197D098E099F09A6
:100D3000061717072807390708F077CF80912B028D
:100D40000E94810280E01092E3018093E201CF9142
:100D50001F910F91FF90EF90DF90CF90089585EE57
:100D6000B0CF80912C0290912D02A0912E02B091D3
:100D70002F02892B8A2B8B2B09F4A9CF0E94D80034
:100D800000912C0210912D0220912E0230912F0201
:100D90006C197D098E099F0906171707280739075F
:100DA00008F095CFCBCF81E09DCF4F925F926F92AD
:100DB0007F928F929F92AF92BF92EF92FF920F938A
:100DC0001F93CF93DF93EC011CA588A1882309F41E
:100DD000E1C089A19AA1009709F4DCC0029709F447
:100DE000DCC08CA1882309F4D8C07B014C8C5D8CBD
:100DF0006E8C7F8C888C998CAA8CBB8C8DE2881A27
:100E00009108A108B1080E94D800681979098A09D7
:100E10009B096415750586059705A8F38EA1182B07
:100E20008FA1182B88A5182B89A5182BEA94EF28D9
:100E300011F48BA1182B8CA1182B88A10E94820081
:100E4000612F81EF92E00E94E2030E94A2028823B8
:100E500001F10FEF1FEF88A10E9482006CA581EFC6
:100E600092E00E94E2030E94A202882311F00FEF99
:100E70001FEFC801DF91CF911F910F91FF90EF906D
:100E8000BF90AF909F908F907F906F905F904F90AA
:100E9000089588A10E9482008DA1812B90E00E947C
:100EA00011040E94A2028111D4CF88A190E00E9477
:100EB000090681EF92E00E949B037C0197FDC9CF58
:100EC00088A10E948200612F81EF92E00E94E203DC
:100ED0000E94A202082F8111BCCF8EA190E08E212A
:100EE0009F21892B09F000E18FA190E08E219F21A5
:100EF000892B09F0006288A590E08E219F21892B23
:100F000009F0006489A590E08E219F21892B09F0CA
:100F1000006888A10E9482008DA1812B90E00E9430
:100F200011040E94A202811194CF88A190E00E9436
:100F3000090681EF92E00E949B037C0197FD89CF17
:100F400088A10E948200612F81EF92E00E94E2035B
:100F50000E94A20281117DCF8EA190E08E219F215F
:100F6000892B09F001608FA190E08E219F21892BB0
:100F700009F0026088A590E08E219F21892B09F05D
:100F8000046089A590E08E219F21892B09F00860DB
:100F900010E061CF0CEF1FEF6CCF0DEF1FEF69CFAB
:100FA0000F931F93CF93DF93EC011092E301109204
:100FB000E20110923102109253020E94630289E80A
:100FC00093E09093B1018093B0018AE893E090930D
:100FD000B5018093B40188A181117EC080918E01FA
:100FE00091E0980F90938E010E94C90488A388A174
:100FF000811109C080918E0191E0980F90938E012C
:101000000E94C90488A318A1112309F46CC089A106
:101010009AA1892B09F021C1812F0E94820060E0F2
:1010200081EF92E00E94E2036FEF81EF92E00E9475
:10103000E2030E94A202812F0E94820060E081EF01
:1010400092E00E94E2030E94A202812F90E00E949F
:10105000090681EF92E00E949B038F3F910509F002
:1010600049C082E090E09AA389A388A10E948200EF
:1010700060E081EF92E00E94E2038FEF90E00E9437
:1010800011040E94A20288A10E94820086E090E0E2
:101090000E9411048FE790E00E9411040E94A202B6
:1010A00088A10E94820089E090E00E9411040E94C1
:1010B000A20288A190E00E94090681EF92E00E94BE
:1010C0009B038F3709F002C127E036E045E054E08A
:1010D00063E072E0E1E005C10E9482000E94A2028A
:1010E000882309F484CF8CEF9FEFDF91CF911F917C
:1010F0000F910895892B29F01AA219A28FEF9FEF63
:10110000F4CF81E090E09AA389A388A10E94820095
:101110006FEF81EF92E00E94E2030E94A20288A199
:1011200090E00E94090681EF92E00E949B038C01EF
:1011300088A10E9482006BEF81EF92E00E94E2039F
:101140000E94A20288A190E00E94090681EF92E02D
:101150000E949B039801277033272730310509F03F
:101160004DC0807F9927803F910509F047C083E0FB
:10117000169507958A95E1F761E00627017043E02F
:1011800057E066E075E0E4E022E0F1E030E081E085
:1011900090E0DC0101C0AA0F3A95EAF7ABA3DC01AD
:1011A00001C0AA0FFA95EAF7ACA3DC0102C0AA0FAE
:1011B000BB1F2A95E2F7ADA39C0101C0220FEA955F
:1011C000EAF72EA39C0101C0220F7A95EAF72FA31C
:1011D0009C0101C0220F6A95EAF728A79C0101C073
:1011E000220F5A95EAF729A701C0880F4A95EAF716
:1011F0008AA70BA7013081F58CA72FC0C801807783
:1012000099278037910519F08DEF9FEF6ECF88A158
:101210000E9482006FEE81EF92E00E94E2030E9442
:10122000A20288A190E00E94090681EF92E00E944C
:101230009B038F70992726E034E00F9711F424E088
:1012400036E00095001F0027001F47E053E062E0F2
:1012500071E0E0E0F5E09BCF1CA688A10E9482002F
:1012600089A19AA1029701F585E090E00E941104FE
:1012700080E290E00E9411040E94A20288A10E94D4
:10128000820060E081EF92E00E94E20360E081EF83
:1012900092E00E94E2030E94A20288A10E948200C2
:1012A00089E090E00E94110460E081EF92E00E94EA
:1012B000E2030E94A20221E030E0811102C030E08E
:1012C00020E088279927821B930B0FCF86FF3BC016
:1012D00081FD9ACF21E032E043E054E065E076E022
:1012E000E7E081E090E0DC0102C0AA0FBB1FEA95B5
:1012F000E2F7ABA31CA2FC0101C0EE0F7A95EAF75E
:10130000EDA3FC0102C0EE0FFF1F6A95E2F7EEA30A
:10131000BC0101C0660F5A95EAF76FA3BC0102C079
:10132000660F771F4A95E2F768A7AC0101C0440F2A
:101330003A95EAF749A701C0880F2A95EAF78AA7E4
:1013400091E09BA759CF26E033E042E051E060E016
:1013500077E0E4E0C6CF0E94C50D85ED8093BC0028
:1013600080912C0290912D02A0912E02B0912F021B
:101370000796A11DB11D23E0B695A7959795879572
:101380002A95D1F72091BC0024FD03C010922A02B7
:10139000089540912C0250912D0260912E0270917F
:1013A0002F02452B462B472B69F30097A105B1056A
:1013B00041F02AE22A95F1F700C00197A109B1098D
:1013C000E1CF80912B020C9481021F920F920FB6F5
:1013D0000F9211242F933F938F939F93AF93BF93BB
:1013E0008091DA019091DB01A091DC01B091DD01E7
:1013F0003091D90123E0230F2D3758F50196A11D17
:10140000B11D2093D9018093DA019093DB01A09361
:10141000DC01B093DD018091DE019091DF01A091AC
:10142000E001B091E1010196A11DB11D8093DE01A3
:101430009093DF01A093E001B093E101BF91AF91E0
:101440009F918F913F912F910F900FBE0F901F9002
:10145000189526E8230F0296A11DB11DD2CF1F9229
:101460000F920FB60F9211242F933F934F935F93D8
:101470006F937F938F939F93AF93BF93EF93FF935C
:1014800084E592E00E94AD01FF91EF91BF91AF9191
:101490009F918F917F916F915F914F913F912F918C
:1014A0000F900FBE0F901F9018951F920F920FB6BE
:1014B0000F9211242F938F939F93EF93FF93E091BB
:1014C0006402F09165028081E0916A02F0916B0202
:1014D00082FD1BC0908180916D028F5F8F73209180
:1014E0006E02821741F0E0916D02F0E0EC5AFD4F80
:1014F000958F80936D02FF91EF919F918F912F9126
:101500000F900FBE0F901F9018958081F4CF1F92FF
:101510000F920FB60F9211242F933F934F935F9327
:101520006F937F938F939F93AF93BF93EF93FF93AB
:101530008091B900887F803609F44AC0F0F588327E
:1015400009F4A7C018F5803109F49BC0B8F48823CA
:1015500009F4F9C0883009F494C0FF91EF91BF916C
:10156000AF919F918F917F916F915F914F913F913B
:101570002F910F900FBE0F901F901895883109F48E
:1015800088C0803251F78093280214C0803409F457
:101590009DC040F48033B9F38833F9F68093280274
:1015A00085ECB0C0803509F485C0883509F496C053
:1015B000883499F60E94AD09D0CF883909F48CC0DF
:1015C00038F5883729F050F4883611F0803729F63D
:1015D00083E080932A021092D60157C0883809F41C
:1015E0007BC0803919F0803809F0B7CF8091D601DF
:1015F000803208F071C0E091D60181E08E0F8093B7
:10160000D6018091BB00F0E0EA54FE4F80833DC0DC
:10161000803B39F0E0F4803A09F479C0883A09F067
:101620009CCF84E080932A021092B3011092B20101
:10163000E091B001F091B10109958091B201811161
:101640000FC081E08093B2011092900109C0803CEC
:1016500009F4A6CF883C09F4A3CF883B09F07DCFDD
:10166000E091B30181E08E0F8093B301F0E0E05789
:10167000FE4F80818093BB009091B3018091B201B5
:1016800029C0809105028093BB0085EC8093BC004B
:1016900064CF9091270280912602981758F5E09127
:1016A000270281E08E0F80932702F0E0EA5FFD4F72
:1016B0008081E9CFE091270281E08E0F809327029D
:1016C0008091BB00F0E0EA5FFD4F8083909127029C
:1016D000809126029817C8F285E8D8CFE0912702BA
:1016E00081E08E0F809327028091BB00F0E0EA5FDB
:1016F000FD4F80838091290281115CCF81E080932E
:10170000040284EA8093BC0010922A0226CF85EC62
:101710008093BC0010922A028091D601803230F46E
:10172000E091D601F0E0EA54FE4F10826091D601BC
:1017300070E0E091B401F091B50186EB91E009957C
:101740001092D6010ACF1092280234CFCF93DF93A4
:10175000E4E5F2E01382128288EE93E0A0E0B0E0CC
:1017600084839583A683B78324E031E0318320838B
:1017700025EC30E03587248724EC30E03787268756
:1017800020EC30E0318B208B21EC30E0338B228B4E
:1017900022EC30E0358B248B26EC30E0378B268B27
:1017A000118E128E138E148EE1EFF2E013821282EC
:1017B00084839583A683B78386E191E091838083B8
:1017C00084E690E09093FE028093FD02CFEFD2E09A
:1017D0001B821A8288E291E0998388831F8218868F
:1017E00080ED97E0A0E0B0E0888B998BAA8BBB8B53
:1017F00086E290E0A0E0B0E08C8B9D8BAE8BBF8B3F
:101800001C861D861E861F861B860E94D800688F38
:10181000798F8A8F9B8F1C8E1D8E1E8E1F8E8EE35E
:1018200091E09983888318A21AA219A2DF91CF911F
:101830000895CF93DF93CDB7DEB7A1970FB6F89495
:10184000DEBF0FBECDBF789484B5826084BD84B501
:10185000816084BD85B5826085BD85B5816085BDAB
:1018600080916E00816080936E0010928100809163
:1018700081008260809381008091810081608093EB
:101880008100809180008160809380008091B10010
:1018900084608093B1008091B00081608093B0003B
:1018A00080917A00846080937A0080917A008260CF
:1018B00080937A0080917A00816080937A00809191
:1018C0007A00806880937A001092C100E0916402EF
:1018D000F091650282E08083E0916002F091610204
:1018E0001082E0916202F09163028FEC808310928B
:1018F0006C02E0916802F091690286E08083E091D9
:101900006602F0916702808180618083E0916602C7
:10191000F0916702808188608083E0916602F09197
:101920006702808180688083E0916602F09167029F
:1019300080818F7D808380910B0381110CC0809109
:101940000C03811108C080910D03811104C08091A6
:101950000E03882331F080910603882369F08431D7
:1019600059F010920B0380E480930C0384E1809380
:101970000D0384E580930E0384E08093070384E1E4
:101980008093060364E670E080E090E00E94FD0032
:10199000109203038FEF92E00E94D007892B09F089
:1019A0004CC080910703823028F080910303886047
:1019B0008093030380E30E94C30565E070E080E04C
:1019C00090E00E94FD0080E30E94C30561E070E0AA
:1019D00080E090E00E94FD0080E30E94C30561E08A
:1019E00070E080E090E00E94FD008091030384FDA0
:1019F00003C080E20E94C3056091030360628FEF21
:101A000092E00E94160484E0809304036CE08FEF60
:101A100092E00E94160461E08FEF92E00E941604AB
:101A200082E08093050366E08FEF92E00E94160447
:101A30006FEF8FEF92E00E94230510E000E0402F4F
:101A4000612F8FEF92E00E944E0468E38FEF92E0E7
:101A50000E9475040F5F043091F71F5F143171F716
:101A60008091D7019091D80101969093D8018093ED
:101A7000D7012091FD023091FE022115310519F0A8
:101A800028173907F4F583E591E00E94FB0590E003
:101A900080E00E94870D182F85E791E00E94EE05F7
:101AA000212F30E050E040E019A28E010F5D1F4F62
:101AB0008AE0C82ED12CE12CF12CCA01B901A70172
:101AC00096010E949D0D605DF80162938F012115C2
:101AD00031054105510589F7309719F0CF010E9472
:101AE000EE0580E591E00E94EE0500E010E00115B2
:101AF0001105E9F30E9499018823C9F30E940000AF
:101B0000F6CF6BE290E080E00E948F0DC0CFF99994
:101B1000FECF92BD81BDF89A992780B50895262FF2
:101B2000F999FECF1FBA92BD81BD20BD0FB6F894C2
:101B3000FA9AF99A0FBE01960895A1E21A2EAA1BED
:101B4000BB1BFD010DC0AA1FBB1FEE1FFF1FA2176D
:101B5000B307E407F50720F0A21BB30BE40BF50B6A
:101B6000661F771F881F991F1A9469F760957095F3
:101B7000809590959B01AC01BD01CF010895EE0FBA
:101B8000FF1F0590F491E02D099481E090E0F89416
:081B90000C94CA0DF894FFCF7C
:101B980000000000CF012F015C011C028D016B01C8
:101BA8007F0100000000E203B503C6048B03AE0307
:101BB8009B038C030000000075042F01C604ED058B
:101BC800C604C304AB09C004C004000000007504C7
:101BD8002F01C604ED05D007D50655052305C00419
:101BE8000D0A004578636565646564206D617869F0
:101BF8006D756D206E756D626572206F66207772E7
:101C08006974657300526561642076616C7565203E
:0E1C180066726F6D20454550524F4D3A2000C8
:00000001FF
